{
  "contractName": "POD",
  "abi": [
    {
      "inputs": [
        {
          "internalType": "address",
          "name": "_seller",
          "type": "address"
        },
        {
          "internalType": "address",
          "name": "_buyer",
          "type": "address"
        },
        {
          "internalType": "address",
          "name": "_transporter",
          "type": "address"
        },
        {
          "internalType": "address",
          "name": "_arbitrator",
          "type": "address"
        },
        {
          "internalType": "address",
          "name": "_attestationAuthority",
          "type": "address"
        },
        {
          "internalType": "string",
          "name": "itemID",
          "type": "string"
        }
      ],
      "payable": true,
      "stateMutability": "payable",
      "type": "constructor"
    },
    {
      "anonymous": false,
      "inputs": [
        {
          "indexed": false,
          "internalType": "string",
          "name": "info",
          "type": "string"
        },
        {
          "indexed": false,
          "internalType": "address",
          "name": "entityAddress",
          "type": "address"
        }
      ],
      "name": "ArrivedToDestination",
      "type": "event"
    },
    {
      "anonymous": false,
      "inputs": [
        {
          "indexed": false,
          "internalType": "string",
          "name": "info",
          "type": "string"
        },
        {
          "indexed": false,
          "internalType": "address",
          "name": "entityAddress",
          "type": "address"
        }
      ],
      "name": "BuyerEnteredVerificationKeys",
      "type": "event"
    },
    {
      "anonymous": false,
      "inputs": [
        {
          "indexed": false,
          "internalType": "string",
          "name": "info",
          "type": "string"
        },
        {
          "indexed": false,
          "internalType": "address",
          "name": "entityAddress",
          "type": "address"
        }
      ],
      "name": "BuyerExceededVerificationTime",
      "type": "event"
    },
    {
      "anonymous": false,
      "inputs": [
        {
          "indexed": false,
          "internalType": "address",
          "name": "entityAddress",
          "type": "address"
        },
        {
          "indexed": false,
          "internalType": "string",
          "name": "info",
          "type": "string"
        },
        {
          "indexed": false,
          "internalType": "string",
          "name": "reason",
          "type": "string"
        }
      ],
      "name": "CancellationRequest",
      "type": "event"
    },
    {
      "anonymous": false,
      "inputs": [
        {
          "indexed": false,
          "internalType": "string",
          "name": "info",
          "type": "string"
        }
      ],
      "name": "DeliveryTimeExceeded",
      "type": "event"
    },
    {
      "anonymous": false,
      "inputs": [
        {
          "indexed": false,
          "internalType": "string",
          "name": "info",
          "type": "string"
        },
        {
          "indexed": false,
          "internalType": "address",
          "name": "entityAddress",
          "type": "address"
        }
      ],
      "name": "EtherTransferredToArbitrator",
      "type": "event"
    },
    {
      "anonymous": false,
      "inputs": [
        {
          "indexed": false,
          "internalType": "string",
          "name": "info",
          "type": "string"
        },
        {
          "indexed": false,
          "internalType": "address",
          "name": "entityAddress",
          "type": "address"
        }
      ],
      "name": "PackageCreatedBySeller",
      "type": "event"
    },
    {
      "anonymous": false,
      "inputs": [
        {
          "indexed": false,
          "internalType": "string",
          "name": "info",
          "type": "string"
        },
        {
          "indexed": false,
          "internalType": "address",
          "name": "entityAddress",
          "type": "address"
        }
      ],
      "name": "PackageIsOnTheWay",
      "type": "event"
    },
    {
      "anonymous": false,
      "inputs": [
        {
          "indexed": false,
          "internalType": "string",
          "name": "info",
          "type": "string"
        },
        {
          "indexed": false,
          "internalType": "address",
          "name": "entityAddress",
          "type": "address"
        }
      ],
      "name": "PackageKeyGivenToBuyer",
      "type": "event"
    },
    {
      "anonymous": false,
      "inputs": [
        {
          "indexed": false,
          "internalType": "string",
          "name": "info",
          "type": "string"
        }
      ],
      "name": "RefundDueToCancellation",
      "type": "event"
    },
    {
      "anonymous": false,
      "inputs": [
        {
          "indexed": false,
          "internalType": "string",
          "name": "info",
          "type": "string"
        }
      ],
      "name": "SuccessfulVerification",
      "type": "event"
    },
    {
      "anonymous": false,
      "inputs": [
        {
          "indexed": false,
          "internalType": "string",
          "name": "info",
          "type": "string"
        },
        {
          "indexed": false,
          "internalType": "address",
          "name": "entityAddress",
          "type": "address"
        }
      ],
      "name": "TermsAndConditionsSignedBy",
      "type": "event"
    },
    {
      "anonymous": false,
      "inputs": [
        {
          "indexed": false,
          "internalType": "string",
          "name": "info",
          "type": "string"
        }
      ],
      "name": "VerificationFailure",
      "type": "event"
    },
    {
      "anonymous": false,
      "inputs": [
        {
          "indexed": false,
          "internalType": "string",
          "name": "info",
          "type": "string"
        },
        {
          "indexed": false,
          "internalType": "address",
          "name": "entityAddress",
          "type": "address"
        }
      ],
      "name": "collateralWithdrawnSuccessfully",
      "type": "event"
    },
    {
      "constant": true,
      "inputs": [],
      "name": "TermsIPFS_Hash",
      "outputs": [
        {
          "internalType": "string",
          "name": "",
          "type": "string"
        }
      ],
      "payable": false,
      "stateMutability": "view",
      "type": "function"
    },
    {
      "constant": true,
      "inputs": [],
      "name": "arbitrator",
      "outputs": [
        {
          "internalType": "address payable",
          "name": "",
          "type": "address"
        }
      ],
      "payable": false,
      "stateMutability": "view",
      "type": "function"
    },
    {
      "constant": true,
      "inputs": [],
      "name": "attestaionAuthority",
      "outputs": [
        {
          "internalType": "address",
          "name": "",
          "type": "address"
        }
      ],
      "payable": false,
      "stateMutability": "view",
      "type": "function"
    },
    {
      "constant": true,
      "inputs": [],
      "name": "buyer",
      "outputs": [
        {
          "internalType": "address payable",
          "name": "",
          "type": "address"
        }
      ],
      "payable": false,
      "stateMutability": "view",
      "type": "function"
    },
    {
      "constant": true,
      "inputs": [
        {
          "internalType": "address",
          "name": "",
          "type": "address"
        }
      ],
      "name": "cancellable",
      "outputs": [
        {
          "internalType": "bool",
          "name": "",
          "type": "bool"
        }
      ],
      "payable": false,
      "stateMutability": "view",
      "type": "function"
    },
    {
      "constant": true,
      "inputs": [],
      "name": "itemPrice",
      "outputs": [
        {
          "internalType": "uint256",
          "name": "",
          "type": "uint256"
        }
      ],
      "payable": false,
      "stateMutability": "view",
      "type": "function"
    },
    {
      "constant": true,
      "inputs": [],
      "name": "seller",
      "outputs": [
        {
          "internalType": "address payable",
          "name": "",
          "type": "address"
        }
      ],
      "payable": false,
      "stateMutability": "view",
      "type": "function"
    },
    {
      "constant": true,
      "inputs": [],
      "name": "state",
      "outputs": [
        {
          "internalType": "enum POD.contractState",
          "name": "",
          "type": "uint8"
        }
      ],
      "payable": false,
      "stateMutability": "view",
      "type": "function"
    },
    {
      "constant": true,
      "inputs": [],
      "name": "transporter",
      "outputs": [
        {
          "internalType": "address payable",
          "name": "",
          "type": "address"
        }
      ],
      "payable": false,
      "stateMutability": "view",
      "type": "function"
    },
    {
      "constant": true,
      "inputs": [
        {
          "internalType": "address",
          "name": "",
          "type": "address"
        }
      ],
      "name": "verificationHash",
      "outputs": [
        {
          "internalType": "bytes32",
          "name": "",
          "type": "bytes32"
        }
      ],
      "payable": false,
      "stateMutability": "view",
      "type": "function"
    },
    {
      "constant": false,
      "inputs": [],
      "name": "SignTermsAndConditions",
      "outputs": [],
      "payable": true,
      "stateMutability": "payable",
      "type": "function"
    },
    {
      "constant": false,
      "inputs": [],
      "name": "createPackageAndKey",
      "outputs": [],
      "payable": true,
      "stateMutability": "payable",
      "type": "function"
    },
    {
      "constant": false,
      "inputs": [],
      "name": "deliverPackage",
      "outputs": [],
      "payable": false,
      "stateMutability": "nonpayable",
      "type": "function"
    },
    {
      "constant": false,
      "inputs": [],
      "name": "requestPackageKey",
      "outputs": [],
      "payable": false,
      "stateMutability": "nonpayable",
      "type": "function"
    },
    {
      "constant": false,
      "inputs": [
        {
          "internalType": "string",
          "name": "keyT",
          "type": "string"
        },
        {
          "internalType": "string",
          "name": "keyR",
          "type": "string"
        }
      ],
      "name": "verifyTransporter",
      "outputs": [],
      "payable": false,
      "stateMutability": "nonpayable",
      "type": "function"
    },
    {
      "constant": false,
      "inputs": [
        {
          "internalType": "string",
          "name": "keyT",
          "type": "string"
        },
        {
          "internalType": "string",
          "name": "keyR",
          "type": "string"
        }
      ],
      "name": "verifyKeyBuyer",
      "outputs": [],
      "payable": false,
      "stateMutability": "nonpayable",
      "type": "function"
    },
    {
      "constant": false,
      "inputs": [],
      "name": "BuyerExceededTime",
      "outputs": [],
      "payable": false,
      "stateMutability": "nonpayable",
      "type": "function"
    },
    {
      "constant": false,
      "inputs": [],
      "name": "refund",
      "outputs": [],
      "payable": false,
      "stateMutability": "nonpayable",
      "type": "function"
    },
    {
      "constant": false,
      "inputs": [
        {
          "internalType": "string",
          "name": "reason",
          "type": "string"
        }
      ],
      "name": "cancelTransaction",
      "outputs": [],
      "payable": false,
      "stateMutability": "nonpayable",
      "type": "function"
    },
    {
      "constant": true,
      "inputs": [],
      "name": "returnKey",
      "outputs": [
        {
          "internalType": "uint256",
          "name": "",
          "type": "uint256"
        }
      ],
      "payable": false,
      "stateMutability": "view",
      "type": "function"
    },
    {
      "constant": true,
      "inputs": [],
      "name": "isRefundable",
      "outputs": [
        {
          "internalType": "bool",
          "name": "",
          "type": "bool"
        }
      ],
      "payable": false,
      "stateMutability": "view",
      "type": "function"
    },
    {
      "constant": true,
      "inputs": [],
      "name": "isBuyerExceededTime",
      "outputs": [
        {
          "internalType": "bool",
          "name": "",
          "type": "bool"
        }
      ],
      "payable": false,
      "stateMutability": "view",
      "type": "function"
    }
  ],
  "bytecode": "0x6080604052604051620035c8380380620035c8833981810160405260c08110156200002957600080fd5b810190808051906020019092919080519060200190929190805190602001909291908051906020019092919080519060200190929190805160405193929190846401000000008211156200007c57600080fd5b838201915060208201858111156200009357600080fd5b8251866001820283011164010000000082111715620000b157600080fd5b8083526020830192505050908051906020019080838360005b83811015620000e7578082015181840152602081019050620000ca565b50505050905090810190601f168015620001155780820380516001836020036101000a031916815260200191505b506040525050506000809054906101000a900473ffffffffffffffffffffffffffffffffffffffff166000806101000a81548173ffffffffffffffffffffffffffffffffffffffff021916908373ffffffffffffffffffffffffffffffffffffffff160217905550600160009054906101000a900473ffffffffffffffffffffffffffffffffffffffff16600160006101000a81548173ffffffffffffffffffffffffffffffffffffffff021916908373ffffffffffffffffffffffffffffffffffffffff160217905550600260009054906101000a900473ffffffffffffffffffffffffffffffffffffffff16600260006101000a81548173ffffffffffffffffffffffffffffffffffffffff021916908373ffffffffffffffffffffffffffffffffffffffff160217905550600360009054906101000a900473ffffffffffffffffffffffffffffffffffffffff16600360006101000a81548173ffffffffffffffffffffffffffffffffffffffff021916908373ffffffffffffffffffffffffffffffffffffffff16021790555081600460006101000a81548173ffffffffffffffffffffffffffffffffffffffff021916908373ffffffffffffffffffffffffffffffffffffffff16021790555066038d7ea4c68000600781905550809050611c20600d819055506078600f819055506040518060600160405280602f815260200162003599602f9139600990805190602001906200033a9291906200036c565b506000600a60006101000a81548160ff0219169083600e8111156200035b57fe5b02179055505050505050506200041b565b828054600181600116156101000203166002900490600052602060002090601f016020900481019282601f10620003af57805160ff1916838001178555620003e0565b82800160010185558215620003e0579182015b82811115620003df578251825591602001919060010190620003c2565b5b509050620003ef9190620003f3565b5090565b6200041891905b8082111562000414576000816000905550600101620003fa565b5090565b90565b61316e806200042b6000396000f3fe6080604052600436106101355760003560e01c80636cc6cde1116100ab578063b1a25c3e1161006f578063b1a25c3e146107e0578063b6590d7c146107f7578063b7c08d6a1461080e578063c19d93fb14610873578063dac6db1c146108ac578063e42b0212146108d757610135565b80636cc6cde1146106995780637150d8ae146106f0578063aee254d014610747578063aefd54a81461079e578063af92c181146107b557610135565b80633f89301e116100fd5780633f89301e1461038157806341fd8b7d1461038b57806344aa5802146104ea578063577da7d214610519578063590e1ae3146105235780635c2867ca1461053a57610135565b806308551a531461013a5780630d242bcc1461019157806319a0f67f146101fa5780632c1fecfe1461028a5780632f2ffd88146102b9575b600080fd5b34801561014657600080fd5b5061014f61092e565b604051808273ffffffffffffffffffffffffffffffffffffffff1673ffffffffffffffffffffffffffffffffffffffff16815260200191505060405180910390f35b34801561019d57600080fd5b506101e0600480360360208110156101b457600080fd5b81019080803573ffffffffffffffffffffffffffffffffffffffff169060200190929190505050610953565b604051808215151515815260200191505060405180910390f35b34801561020657600080fd5b5061020f610973565b6040518080602001828103825283818151815260200191508051906020019080838360005b8381101561024f578082015181840152602081019050610234565b50505050905090810190601f16801561027c5780820380516001836020036101000a031916815260200191505b509250505060405180910390f35b34801561029657600080fd5b5061029f610a11565b604051808215151515815260200191505060405180910390f35b3480156102c557600080fd5b5061037f600480360360208110156102dc57600080fd5b81019080803590602001906401000000008111156102f957600080fd5b82018360208201111561030b57600080fd5b8035906020019184600183028401116401000000008311171561032d57600080fd5b91908080601f016020809104026020016040519081016040528093929190818152602001838380828437600081840152601f19601f820116905080830192505050505050509192919290505050610adc565b005b610389610ec2565b005b34801561039757600080fd5b506104e8600480360360408110156103ae57600080fd5b81019080803590602001906401000000008111156103cb57600080fd5b8201836020820111156103dd57600080fd5b803590602001918460018302840111640100000000831117156103ff57600080fd5b91908080601f016020809104026020016040519081016040528093929190818152602001838380828437600081840152601f19601f8201169050808301925050505050505091929192908035906020019064010000000081111561046257600080fd5b82018360208201111561047457600080fd5b8035906020019184600183028401116401000000008311171561049657600080fd5b91908080601f016020809104026020016040519081016040528093929190818152602001838380828437600081840152601f19601f8201169050808301925050505050505091929192905050506111d0565b005b3480156104f657600080fd5b506104ff611434565b604051808215151515815260200191505060405180910390f35b6105216114cf565b005b34801561052f57600080fd5b50610538611cb9565b005b34801561054657600080fd5b506106976004803603604081101561055d57600080fd5b810190808035906020019064010000000081111561057a57600080fd5b82018360208201111561058c57600080fd5b803590602001918460018302840111640100000000831117156105ae57600080fd5b91908080601f016020809104026020016040519081016040528093929190818152602001838380828437600081840152601f19601f8201169050808301925050505050505091929192908035906020019064010000000081111561061157600080fd5b82018360208201111561062357600080fd5b8035906020019184600183028401116401000000008311171561064557600080fd5b91908080601f016020809104026020016040519081016040528093929190818152602001838380828437600081840152601f19601f820116905080830192505050505050509192919290505050612024565b005b3480156106a557600080fd5b506106ae612289565b604051808273ffffffffffffffffffffffffffffffffffffffff1673ffffffffffffffffffffffffffffffffffffffff16815260200191505060405180910390f35b3480156106fc57600080fd5b506107056122af565b604051808273ffffffffffffffffffffffffffffffffffffffff1673ffffffffffffffffffffffffffffffffffffffff16815260200191505060405180910390f35b34801561075357600080fd5b5061075c6122d5565b604051808273ffffffffffffffffffffffffffffffffffffffff1673ffffffffffffffffffffffffffffffffffffffff16815260200191505060405180910390f35b3480156107aa57600080fd5b506107b36122fb565b005b3480156107c157600080fd5b506107ca612555565b6040518082815260200191505060405180910390f35b3480156107ec57600080fd5b506107f5612672565b005b34801561080357600080fd5b5061080c612824565b005b34801561081a57600080fd5b5061085d6004803603602081101561083157600080fd5b81019080803573ffffffffffffffffffffffffffffffffffffffff16906020019092919050505061296e565b6040518082815260200191505060405180910390f35b34801561087f57600080fd5b50610888612986565b6040518082600e81111561089857fe5b60ff16815260200191505060405180910390f35b3480156108b857600080fd5b506108c1612999565b6040518082815260200191505060405180910390f35b3480156108e357600080fd5b506108ec61299f565b604051808273ffffffffffffffffffffffffffffffffffffffff1673ffffffffffffffffffffffffffffffffffffffff16815260200191505060405180910390f35b6000809054906101000a900473ffffffffffffffffffffffffffffffffffffffff1681565b600c6020528060005260406000206000915054906101000a900460ff1681565b60098054600181600116156101000203166002900480601f016020809104026020016040519081016040528092919081815260200182805460018160011615610100020316600290048015610a095780601f106109de57610100808354040283529160200191610a09565b820191906000526020600020905b8154815290600101906020018083116109ec57829003601f168201915b505050505081565b6000600160009054906101000a900473ffffffffffffffffffffffffffffffffffffffff1673ffffffffffffffffffffffffffffffffffffffff163373ffffffffffffffffffffffffffffffffffffffff1614610a6d57600080fd5b600d546010540142118015610ad757506005600e811115610a8a57fe5b600a60009054906101000a900460ff16600e811115610aa557fe5b1480610ad657506006600e811115610ab957fe5b600a60009054906101000a900460ff16600e811115610ad457fe5b145b5b905090565b6000809054906101000a900473ffffffffffffffffffffffffffffffffffffffff1673ffffffffffffffffffffffffffffffffffffffff163373ffffffffffffffffffffffffffffffffffffffff161480610b845750600160009054906101000a900473ffffffffffffffffffffffffffffffffffffffff1673ffffffffffffffffffffffffffffffffffffffff163373ffffffffffffffffffffffffffffffffffffffff16145b80610bdc5750600260009054906101000a900473ffffffffffffffffffffffffffffffffffffffff1673ffffffffffffffffffffffffffffffffffffffff163373ffffffffffffffffffffffffffffffffffffffff16145b610be557600080fd5b60011515600c60003373ffffffffffffffffffffffffffffffffffffffff1673ffffffffffffffffffffffffffffffffffffffff16815260200190815260200160002060009054906101000a900460ff16151514610c4257600080fd5b600c600a60006101000a81548160ff0219169083600e811115610c6157fe5b02179055506000809054906101000a900473ffffffffffffffffffffffffffffffffffffffff1673ffffffffffffffffffffffffffffffffffffffff166108fc6007546002029081150290604051600060405180830381858888f19350505050158015610cd2573d6000803e3d6000fd5b50600160009054906101000a900473ffffffffffffffffffffffffffffffffffffffff1673ffffffffffffffffffffffffffffffffffffffff166108fc6007546002029081150290604051600060405180830381858888f19350505050158015610d40573d6000803e3d6000fd5b50600260009054906101000a900473ffffffffffffffffffffffffffffffffffffffff1673ffffffffffffffffffffffffffffffffffffffff166108fc6007546002029081150290604051600060405180830381858888f19350505050158015610dae573d6000803e3d6000fd5b507f89ba25c712643a4244703a97962dd8cd8d45753177f3ae97108ae82e2840c3213382604051808373ffffffffffffffffffffffffffffffffffffffff1673ffffffffffffffffffffffffffffffffffffffff168152602001806020018060200183810383526026815260200180612ebe60269139604001838103825284818151815260200191508051906020019080838360005b83811015610e5f578082015181840152602081019050610e44565b50505050905090810190601f168015610e8c5780820380516001836020036101000a031916815260200191505b5094505050505060405180910390a1600e600a60006101000a81548160ff0219169083600e811115610eba57fe5b021790555050565b6000809054906101000a900473ffffffffffffffffffffffffffffffffffffffff1673ffffffffffffffffffffffffffffffffffffffff163373ffffffffffffffffffffffffffffffffffffffff1614610f1b57600080fd5b6003600e811115610f2857fe5b600a60009054906101000a900460ff16600e811115610f4357fe5b14610f4d57600080fd5b6000600c60003373ffffffffffffffffffffffffffffffffffffffff1673ffffffffffffffffffffffffffffffffffffffff16815260200190815260200160002060006101000a81548160ff0219169083151502179055506000600c6000600260009054906101000a900473ffffffffffffffffffffffffffffffffffffffff1673ffffffffffffffffffffffffffffffffffffffff1673ffffffffffffffffffffffffffffffffffffffff16815260200190815260200160002060006101000a81548160ff0219169083151502179055507d0e7d34c64a9c85d4460dbbca87196b61618a4bd2168000000000000000006008600260009054906101000a900473ffffffffffffffffffffffffffffffffffffffff164260405160200180848054600181600116156101000203166002900480156110c25780601f106110a05761010080835404028352918201916110c2565b820191906000526020600020905b8154815290600101906020018083116110ae575b50508373ffffffffffffffffffffffffffffffffffffffff1673ffffffffffffffffffffffffffffffffffffffff1660601b815260140182815260200193505050506040516020818303038152906040528051906020012060001c8161112457fe5b046005819055506004600a60006101000a81548160ff0219169083600e81111561114a57fe5b02179055507f257e71a696af2cdf57cd70e35ccdd4384f6ad19305f0700e090550884dbbd84c3360405180806020018373ffffffffffffffffffffffffffffffffffffffff1673ffffffffffffffffffffffffffffffffffffffff1681526020018281038252603b815260200180612fb1603b91396040019250505060405180910390a1565b600260009054906101000a900473ffffffffffffffffffffffffffffffffffffffff1673ffffffffffffffffffffffffffffffffffffffff163373ffffffffffffffffffffffffffffffffffffffff161461122a57600080fd5b6006600e81111561123757fe5b600a60009054906101000a900460ff16600e81111561125257fe5b1461125c57600080fd5b7fc5cb2b8989a6ab05c89536eb9c64649f4dc9cf05c3253210856c2663ae9f097f3360405180806020018373ffffffffffffffffffffffffffffffffffffffff1673ffffffffffffffffffffffffffffffffffffffff16815260200182810382526034815260200180612e61603491396040019250505060405180910390a181816040516020018083805190602001908083835b6020831061131357805182526020820191506020810190506020830392506112f0565b6001836020036101000a03801982511681845116808217855250505050505090500182805190602001908083835b602083106113645780518252602082019150602081019050602083039250611341565b6001836020036101000a0380198251168184511680821785525050505050509050019250505060405160208183030381529060405280519060200120600b6000600260009054906101000a900473ffffffffffffffffffffffffffffffffffffffff1673ffffffffffffffffffffffffffffffffffffffff1673ffffffffffffffffffffffffffffffffffffffff168152602001908152602001600020819055506007600a60006101000a81548160ff0219169083600e81111561142457fe5b021790555042600e819055505050565b6000600260009054906101000a900473ffffffffffffffffffffffffffffffffffffffff1673ffffffffffffffffffffffffffffffffffffffff163373ffffffffffffffffffffffffffffffffffffffff161461149057600080fd5b600f54600e5401421180156114ca57506007600e8111156114ad57fe5b600a60009054906101000a900460ff16600e8111156114c857fe5b145b905090565b60075460020234146114e057600080fd5b6000809054906101000a900473ffffffffffffffffffffffffffffffffffffffff1673ffffffffffffffffffffffffffffffffffffffff163373ffffffffffffffffffffffffffffffffffffffff1614806115885750600160009054906101000a900473ffffffffffffffffffffffffffffffffffffffff1673ffffffffffffffffffffffffffffffffffffffff163373ffffffffffffffffffffffffffffffffffffffff16145b806115e05750600260009054906101000a900473ffffffffffffffffffffffffffffffffffffffff1673ffffffffffffffffffffffffffffffffffffffff163373ffffffffffffffffffffffffffffffffffffffff16145b6115e957600080fd5b6000809054906101000a900473ffffffffffffffffffffffffffffffffffffffff1673ffffffffffffffffffffffffffffffffffffffff163373ffffffffffffffffffffffffffffffffffffffff1614156117b4576000600e81111561164b57fe5b600a60009054906101000a900460ff16600e81111561166657fe5b1461167057600080fd5b7f9cea04aff3f776ebd39f71b9106908dea3a3116faf10e899b8813dc9d376bd673360405180806020018373ffffffffffffffffffffffffffffffffffffffff1673ffffffffffffffffffffffffffffffffffffffff168152602001828103825260208152602001807f5465726d7320616e6420436f6e646974696f6e64207665726966696564203a208152506020019250505060405180910390a17fdbd2e985d8ff3bc981ac1b377adad9122a998155e8573a6425d2dd3c541a9b083360405180806020018373ffffffffffffffffffffffffffffffffffffffff1673ffffffffffffffffffffffffffffffffffffffff1681526020018281038252602f815260200180612ee4602f91396040019250505060405180910390a16001600a60006101000a81548160ff0219169083600e8111156117aa57fe5b0217905550611cb7565b600260009054906101000a900473ffffffffffffffffffffffffffffffffffffffff1673ffffffffffffffffffffffffffffffffffffffff163373ffffffffffffffffffffffffffffffffffffffff161415611980576001600e81111561181757fe5b600a60009054906101000a900460ff16600e81111561183257fe5b1461183c57600080fd5b7f9cea04aff3f776ebd39f71b9106908dea3a3116faf10e899b8813dc9d376bd673360405180806020018373ffffffffffffffffffffffffffffffffffffffff1673ffffffffffffffffffffffffffffffffffffffff168152602001828103825260208152602001807f5465726d7320616e6420436f6e646974696f6e64207665726966696564203a208152506020019250505060405180910390a17fdbd2e985d8ff3bc981ac1b377adad9122a998155e8573a6425d2dd3c541a9b083360405180806020018373ffffffffffffffffffffffffffffffffffffffff1673ffffffffffffffffffffffffffffffffffffffff1681526020018281038252602f815260200180612ee4602f91396040019250505060405180910390a16002600a60006101000a81548160ff0219169083600e81111561197657fe5b0217905550611cb6565b600160009054906101000a900473ffffffffffffffffffffffffffffffffffffffff1673ffffffffffffffffffffffffffffffffffffffff163373ffffffffffffffffffffffffffffffffffffffff161415611cb5576002600e8111156119e357fe5b600a60009054906101000a900460ff16600e8111156119fe57fe5b14611a0857600080fd5b7f9cea04aff3f776ebd39f71b9106908dea3a3116faf10e899b8813dc9d376bd673360405180806020018373ffffffffffffffffffffffffffffffffffffffff1673ffffffffffffffffffffffffffffffffffffffff168152602001828103825260208152602001807f5465726d7320616e6420436f6e646974696f6e64207665726966696564203a208152506020019250505060405180910390a17fdbd2e985d8ff3bc981ac1b377adad9122a998155e8573a6425d2dd3c541a9b083360405180806020018373ffffffffffffffffffffffffffffffffffffffff1673ffffffffffffffffffffffffffffffffffffffff1681526020018281038252602f815260200180612ee4602f91396040019250505060405180910390a16003600a60006101000a81548160ff0219169083600e811115611b4257fe5b02179055506001600c60008060009054906101000a900473ffffffffffffffffffffffffffffffffffffffff1673ffffffffffffffffffffffffffffffffffffffff1673ffffffffffffffffffffffffffffffffffffffff16815260200190815260200160002060006101000a81548160ff0219169083151502179055506001600c6000600160009054906101000a900473ffffffffffffffffffffffffffffffffffffffff1673ffffffffffffffffffffffffffffffffffffffff1673ffffffffffffffffffffffffffffffffffffffff16815260200190815260200160002060006101000a81548160ff0219169083151502179055506001600c6000600260009054906101000a900473ffffffffffffffffffffffffffffffffffffffff1673ffffffffffffffffffffffffffffffffffffffff1673ffffffffffffffffffffffffffffffffffffffff16815260200190815260200160002060006101000a81548160ff0219169083151502179055505b5b5b565b600160009054906101000a900473ffffffffffffffffffffffffffffffffffffffff1673ffffffffffffffffffffffffffffffffffffffff163373ffffffffffffffffffffffffffffffffffffffff1614611d1357600080fd5b600d546010540142118015611d7d57506005600e811115611d3057fe5b600a60009054906101000a900460ff16600e811115611d4b57fe5b1480611d7c57506006600e811115611d5f57fe5b600a60009054906101000a900460ff16600e811115611d7a57fe5b145b5b611d8657600080fd5b7ff44c41058f1efc4cb53f80e4cd42dec8bec9c9eb5f578bee91b5e28d3187677e60405180806020018281038252602a815260200180613099602a913960400191505060405180910390a1600d600a60006101000a81548160ff0219169083600e811115611df057fe5b0217905550600160009054906101000a900473ffffffffffffffffffffffffffffffffffffffff1673ffffffffffffffffffffffffffffffffffffffff166108fc6007546002029081150290604051600060405180830381858888f19350505050158015611e62573d6000803e3d6000fd5b506000809054906101000a900473ffffffffffffffffffffffffffffffffffffffff1673ffffffffffffffffffffffffffffffffffffffff166108fc6007546002029081150290604051600060405180830381858888f19350505050158015611ecf573d6000803e3d6000fd5b50600360009054906101000a900473ffffffffffffffffffffffffffffffffffffffff1673ffffffffffffffffffffffffffffffffffffffff166108fc479081150290604051600060405180830381858888f19350505050158015611f38573d6000803e3d6000fd5b50600b600a60006101000a81548160ff0219169083600e811115611f5857fe5b02179055507ffc0cf60f1f5c19e05c32dfb2dff6c9823cdc87846e26a2e2335a01cb184ab2f3600360009054906101000a900473ffffffffffffffffffffffffffffffffffffffff1660405180806020018373ffffffffffffffffffffffffffffffffffffffff1673ffffffffffffffffffffffffffffffffffffffff168152602001828103825260778152602001806130c3607791396080019250505060405180910390a1600e600a60006101000a81548160ff0219169083600e81111561201d57fe5b0217905550565b600160009054906101000a900473ffffffffffffffffffffffffffffffffffffffff1673ffffffffffffffffffffffffffffffffffffffff163373ffffffffffffffffffffffffffffffffffffffff161461207e57600080fd5b6007600e81111561208b57fe5b600a60009054906101000a900460ff16600e8111156120a657fe5b146120b057600080fd5b7fd58c2147902b2eb7ba2e7297446aad01cc528c23b8b37c0bf79b1a8dda675f803360405180806020018373ffffffffffffffffffffffffffffffffffffffff1673ffffffffffffffffffffffffffffffffffffffff16815260200182810382526035815260200180613026603591396040019250505060405180910390a181816040516020018083805190602001908083835b602083106121675780518252602082019150602081019050602083039250612144565b6001836020036101000a03801982511681845116808217855250505050505090500182805190602001908083835b602083106121b85780518252602082019150602081019050602083039250612195565b6001836020036101000a0380198251168184511680821785525050505050509050019250505060405160208183030381529060405280519060200120600b6000600160009054906101000a900473ffffffffffffffffffffffffffffffffffffffff1673ffffffffffffffffffffffffffffffffffffffff1673ffffffffffffffffffffffffffffffffffffffff168152602001908152602001600020819055506008600a60006101000a81548160ff0219169083600e81111561227857fe5b02179055506122856129c5565b5050565b600360009054906101000a900473ffffffffffffffffffffffffffffffffffffffff1681565b600160009054906101000a900473ffffffffffffffffffffffffffffffffffffffff1681565b600460009054906101000a900473ffffffffffffffffffffffffffffffffffffffff1681565b600160009054906101000a900473ffffffffffffffffffffffffffffffffffffffff1673ffffffffffffffffffffffffffffffffffffffff163373ffffffffffffffffffffffffffffffffffffffff161461235557600080fd5b6005600e81111561236257fe5b600a60009054906101000a900460ff16600e81111561237d57fe5b1461238757600080fd5b7d0e7d34c64a9c85d4460dbbca87196b61618a4bd2168000000000000000006008600160009054906101000a900473ffffffffffffffffffffffffffffffffffffffff1642604051602001808480546001816001161561010002031660029004801561242a5780601f1061240857610100808354040283529182019161242a565b820191906000526020600020905b815481529060010190602001808311612416575b50508373ffffffffffffffffffffffffffffffffffffffff1673ffffffffffffffffffffffffffffffffffffffff1660601b815260140182815260200193505050506040516020818303038152906040528051906020012060001c8161248c57fe5b046006819055506006600a60006101000a81548160ff0219169083600e8111156124b257fe5b02179055507f39c083c1080ed893ac62b67c0b71baf9d3681f9303cfe9a1ba626ec15b77d6393360405180806020018373ffffffffffffffffffffffffffffffffffffffff1673ffffffffffffffffffffffffffffffffffffffff168152602001828103825260208152602001807f546865207061636b616765204b657920697320676976656e20746f20746865208152506020019250505060405180910390a1565b6000600260009054906101000a900473ffffffffffffffffffffffffffffffffffffffff1673ffffffffffffffffffffffffffffffffffffffff163373ffffffffffffffffffffffffffffffffffffffff1614806125ff57506000809054906101000a900473ffffffffffffffffffffffffffffffffffffffff1673ffffffffffffffffffffffffffffffffffffffff163373ffffffffffffffffffffffffffffffffffffffff16145b1561260e57600554905061266f565b600160009054906101000a900473ffffffffffffffffffffffffffffffffffffffff1673ffffffffffffffffffffffffffffffffffffffff163373ffffffffffffffffffffffffffffffffffffffff16141561266e57600654905061266f565b5b90565b600260009054906101000a900473ffffffffffffffffffffffffffffffffffffffff1673ffffffffffffffffffffffffffffffffffffffff163373ffffffffffffffffffffffffffffffffffffffff16146126cc57600080fd5b6004600e8111156126d957fe5b600a60009054906101000a900460ff16600e8111156126f457fe5b146126fe57600080fd5b426010819055506000600c6000600160009054906101000a900473ffffffffffffffffffffffffffffffffffffffff1673ffffffffffffffffffffffffffffffffffffffff1673ffffffffffffffffffffffffffffffffffffffff16815260200190815260200160002060006101000a81548160ff0219169083151502179055507f6af7b67d09135b180cb91ecaf4ffd235b7067e29daf7c99a5443e5a2347a77713360405180806020018373ffffffffffffffffffffffffffffffffffffffff1673ffffffffffffffffffffffffffffffffffffffff1681526020018281038252603e81526020018061305b603e91396040019250505060405180910390a16005600a60006101000a81548160ff0219169083600e81111561281d57fe5b0217905550565b600260009054906101000a900473ffffffffffffffffffffffffffffffffffffffff1673ffffffffffffffffffffffffffffffffffffffff163373ffffffffffffffffffffffffffffffffffffffff161461287e57600080fd5b600f54600e5401421180156128b857506007600e81111561289b57fe5b600a60009054906101000a900460ff16600e8111156128b657fe5b145b6128c157600080fd5b7f65bd4ad8d66da3479955f33159af924e8211aabd2bdf8426afa552de476054723360405180806020018373ffffffffffffffffffffffffffffffffffffffff1673ffffffffffffffffffffffffffffffffffffffff16815260200182810382526029815260200180612e95602991396040019250505060405180910390a16008600a60006101000a81548160ff0219169083600e81111561295f57fe5b021790555061296c6129c5565b565b600b6020528060005260406000206000915090505481565b600a60009054906101000a900460ff1681565b60075481565b600260009054906101000a900473ffffffffffffffffffffffffffffffffffffffff1681565b6008600e8111156129d257fe5b600a60009054906101000a900460ff16600e8111156129ed57fe5b146129f757600080fd5b600b6000600160009054906101000a900473ffffffffffffffffffffffffffffffffffffffff1673ffffffffffffffffffffffffffffffffffffffff1673ffffffffffffffffffffffffffffffffffffffff16815260200190815260200160002054600b6000600260009054906101000a900473ffffffffffffffffffffffffffffffffffffffff1673ffffffffffffffffffffffffffffffffffffffff1673ffffffffffffffffffffffffffffffffffffffff168152602001908152602001600020541415612c9d577f5ceb8be1ca60b29392c4eba246b4df328b94b21f7dc3c3925630e318bae1bc3160405180806020018281038252603a815260200180612fec603a913960400191505060405180910390a1600160009054906101000a900473ffffffffffffffffffffffffffffffffffffffff1673ffffffffffffffffffffffffffffffffffffffff166108fc6007549081150290604051600060405180830381858888f19350505050158015612b76573d6000803e3d6000fd5b50600260009054906101000a900473ffffffffffffffffffffffffffffffffffffffff1673ffffffffffffffffffffffffffffffffffffffff166108fc6064600754600a0281612bc257fe5b04600754600202019081150290604051600060405180830381858888f19350505050158015612bf5573d6000803e3d6000fd5b506000809054906101000a900473ffffffffffffffffffffffffffffffffffffffff1673ffffffffffffffffffffffffffffffffffffffff166108fc6064600754605a0281612c4057fe5b04600754600202019081150290604051600060405180830381858888f19350505050158015612c73573d6000803e3d6000fd5b506009600a60006101000a81548160ff0219169083600e811115612c9357fe5b0217905550612e5e565b7f4ed0570313882c4b1660d5a3a0fdca6fbeddba1bfca75a125dcd7e403f192442604051808060200182810382526058815260200180612f596058913960600191505060405180910390a1600a8060006101000a81548160ff0219169083600e811115612d0657fe5b0217905550600360009054906101000a900473ffffffffffffffffffffffffffffffffffffffff1673ffffffffffffffffffffffffffffffffffffffff166108fc479081150290604051600060405180830381858888f19350505050158015612d73573d6000803e3d6000fd5b50600b600a60006101000a81548160ff0219169083600e811115612d9357fe5b02179055507ffc0cf60f1f5c19e05c32dfb2dff6c9823cdc87846e26a2e2335a01cb184ab2f3600360009054906101000a900473ffffffffffffffffffffffffffffffffffffffff1660405180806020018373ffffffffffffffffffffffffffffffffffffffff1673ffffffffffffffffffffffffffffffffffffffff16815260200182810382526046815260200180612f13604691396060019250505060405180910390a1600e600a60006101000a81548160ff0219169083600e811115612e5857fe5b02179055505b56fe5472616e73706f72746572204172726976656420546f2044657374696e6174696f6e20616e6420656e7465726564206b65797320446973707574653a20427579657220457863656564656420566572696669636174696f6e2054696d65206861732072657175657374656420612063616e63656c6c6174696f6e2064756520746f3a20446f75626c65206465706f7369742069732077697468647261776e207375636365737366756c6c792066726f6d3a2044756520746f206469737075746520616c6c204574686572206465706f736974732068617665206265656e207472616e7366657272656420746f2061726269747261746f7220566572696669636174696f6e206661696c6564202c206b65797320646f206e6f74206d617463682e20506c6561736520736f6c7665207468652064697370757465206f666620636861696e2e204e6f20726566756e64732e5061636b616765206372656174656420616e64204b657920676976656e20746f207472616e73706f72746572206279207468652073656e646572205061796d656e742077696c6c2073686f72746c7920626520736574746c6564202c207375636365737366756c20766572696669636174696f6e21526563696576657220656e7465726564206b6579732c2077616974696e6720666f72207061796d656e7420736574746c656d656e74546865207061636b616765206973206265696e672064656c69766572656420616e6420746865206b657920697320726563656976656420627920746865204974656d206e6f742064656c697665726564206f6e2074696d652c20526566756e64205265717565737444756520746f20657863656564696e672064656c69766572792074696d6520616e6420726566756e642072657175657374206279207265636569766572202c20616c6c204574686572206465706f736974732068617665206265656e207472616e7366657272656420746f2061726269747261746f7220a265627a7a72315820c117752be45d1ebde6ce61dd01aa72c3a6d0f19c742c6456051546aa737cc89664736f6c63430005100032516d5757515375504d5336615843625a4b70456a504850555a4e324e6a42335972684a544873563458337662327464",
  "source": "pragma solidity >=0.4.21 <0.7.0;\n\ncontract POD {\n\n    address payable public seller;\n    address  payable public buyer;\n    address payable public transporter;\n    address payable public arbitrator; // Trusted incase of dispute\n    address public attestaionAuthority; // Party that attested the smart contract\n\n    uint private keyTr;\n    uint private keyBr;\n\n    uint public itemPrice;\n    string itemID;\n\n    string public TermsIPFS_Hash; // Terms and conditions agreement IPFS Hash\n\n    // Enum wont allow the contract to be in any other state\n    enum contractState { waitingForVerificationbySeller, waitingForVerificationbyTransporter,\n                        waitingForVerificationbyBuyer, MoneyWithdrawn, PackageAndTransporterKeyCreated,\n                        ItemOnTheWay,PackageKeyGivenToBuyer, ArrivedToDestination, buyerKeysEntered,\n                        PaymentSettledSuccess, DisputeVerificationFailure, EtherWithArbitrator,\n                        CancellationRefund, Refund, Aborted }\n\n    contractState public state;\n\n    mapping(address => bytes32) public verificationHash;\n    mapping(address => bool) public cancellable;\n\n    uint deliveryDuration;\n    uint startEntryTransporterKeysBlocktime;\n    uint buyerVerificationTimeWindow;\n    uint startdeliveryBlocktime;\n\n    constructor(address _seller,\n    address _buyer,\n    address _transporter,\n    address _arbitrator,\n    address _attestationAuthority,\n    string memory itemID) public payable {\n        seller = seller;\n        buyer = buyer;\n        transporter = transporter;\n        arbitrator = arbitrator;\n        attestaionAuthority = _attestationAuthority;\n\n        itemPrice = 0.001 ether;\n        itemID = itemID;\n        deliveryDuration = 2 hours; // 2 hours\n        buyerVerificationTimeWindow = 2 minutes; // Time for the buyer to verify keys after transporter entered the keys\n        TermsIPFS_Hash = \"QmWWQSuPMS6aXCbZKpEjPHPUZN2NjB3YrhJTHsV4X3vb2td\";\n\n        state = contractState.waitingForVerificationbySeller;\n    }\n\n    modifier costs() {\n       require(msg.value == 2*itemPrice);\n       _;\n    }\n\n    modifier OnlySeller() {\n        require(msg.sender == seller);\n        _;\n    }\n\n    modifier OnlyBuyer() {\n        require(msg.sender == buyer);\n        _;\n    }\n\n    modifier OnlyTransporter() {\n        require(msg.sender == transporter);\n        _;\n    }\n\n    modifier OnlySeller_Buyer_Transporter() {\n        require(msg.sender == seller || msg.sender == buyer || msg.sender == transporter);\n        _;\n    }\n\n    event TermsAndConditionsSignedBy(string info, address entityAddress);\n    event collateralWithdrawnSuccessfully(string info, address entityAddress);\n    event PackageCreatedBySeller(string info, address entityAddress);\n    event PackageIsOnTheWay(string info, address entityAddress);\n    event PackageKeyGivenToBuyer(string info, address entityAddress);\n    event ArrivedToDestination(string info, address entityAddress);\n    event BuyerEnteredVerificationKeys(string info, address entityAddress);\n    event SuccessfulVerification(string info);\n    event VerificationFailure(string info);\n    event CancellationRequest(address entityAddress, string info, string reason);\n    event RefundDueToCancellation(string info);\n    event DeliveryTimeExceeded(string info);\n    event EtherTransferredToArbitrator(string info, address entityAddress);\n    event BuyerExceededVerificationTime(string info, address entityAddress);\n\n    function SignTermsAndConditions() public payable costs OnlySeller_Buyer_Transporter {\n        if(msg.sender == seller) {\n            require(state == contractState.waitingForVerificationbySeller);\n            emit TermsAndConditionsSignedBy(\"Terms and Conditiond verified : \", msg.sender);\n            emit collateralWithdrawnSuccessfully(\"Double deposit is withdrawn successfully from: \", msg.sender);\n            state = contractState.waitingForVerificationbyTransporter;\n        }\n        else if(msg.sender == transporter) {\n            require(state == contractState.waitingForVerificationbyTransporter);\n            emit TermsAndConditionsSignedBy(\"Terms and Conditiond verified : \", msg.sender);\n            emit collateralWithdrawnSuccessfully(\"Double deposit is withdrawn successfully from: \", msg.sender);\n            state = contractState.waitingForVerificationbyBuyer;\n        }\n        else if(msg.sender == buyer) {\n            require(state == contractState.waitingForVerificationbyBuyer);\n            emit TermsAndConditionsSignedBy(\"Terms and Conditiond verified : \", msg.sender);\n            emit collateralWithdrawnSuccessfully(\"Double deposit is withdrawn successfully from: \", msg.sender);\n            state = contractState.MoneyWithdrawn;\n            cancellable[seller] = true;\n            cancellable[buyer] = true;\n            cancellable[transporter] = true;\n        }\n    }\n\n    function createPackageAndKey() public payable OnlySeller {\n        require(state == contractState.MoneyWithdrawn);\n\n        cancellable[msg.sender] = false;\n        cancellable[transporter]=false;\n        keyTr = uint(keccak256(\n            abi.encodePacked(itemID, transporter, block.timestamp)\n        ))/100000000000000000000000000000000000000000000000000000000000000000000000;\n        state = contractState.PackageAndTransporterKeyCreated;\n        emit PackageCreatedBySeller(\"Package created and Key given to transporter by the sender \", msg.sender);\n    }\n\n    function deliverPackage() public OnlyTransporter {\n        require(state == contractState.PackageAndTransporterKeyCreated);\n        startdeliveryBlocktime = block.timestamp;//save the delivery time\n        cancellable[buyer] = false;\n        emit PackageIsOnTheWay(\"The package is being delivered and the key is received by the \", msg.sender);\n        state = contractState.ItemOnTheWay;\n    }\n\n    function requestPackageKey() public OnlyBuyer {\n        require(state == contractState.ItemOnTheWay);\n        keyBr = uint(keccak256(\n            abi.encodePacked(itemID, buyer, block.timestamp)\n        ))/100000000000000000000000000000000000000000000000000000000000000000000000;\n        state = contractState.PackageKeyGivenToBuyer;\n        emit PackageKeyGivenToBuyer(\"The package Key is given to the \", msg.sender);\n    }\n\n    function verifyTransporter(string memory keyT, string memory keyR) public OnlyTransporter {\n        require(state == contractState.PackageKeyGivenToBuyer);\n        emit ArrivedToDestination(\"Transporter Arrived To Destination and entered keys \" , msg.sender);\n        verificationHash[transporter] = keccak256(\n                abi.encodePacked(keyT, keyR)\n            );\n        state = contractState.ArrivedToDestination;\n        startEntryTransporterKeysBlocktime = block.timestamp;\n    }\n\n    function verifyKeyBuyer(string memory keyT, string memory keyR) public OnlyBuyer {\n        require(state == contractState.ArrivedToDestination);\n        emit BuyerEnteredVerificationKeys(\"Reciever entered keys, waiting for payment settlement\", msg.sender);\n        verificationHash[buyer] = keccak256(\n                abi.encodePacked(keyT, keyR)\n            );\n        state = contractState.buyerKeysEntered;\n        verification();\n    }\n\n    function BuyerExceededTime() public OnlyTransporter {\n        require(block.timestamp > startEntryTransporterKeysBlocktime + buyerVerificationTimeWindow &&\n        state == contractState.ArrivedToDestination);\n        emit BuyerExceededVerificationTime(\"Dispute: Buyer Exceeded Verification Time\", msg.sender);\n        state = contractState.buyerKeysEntered;\n        verification();\n    }\n\n    function refund() public OnlyBuyer {\n        //refund incase delivery took more than deadline\n        require(block.timestamp > startdeliveryBlocktime+deliveryDuration &&\n        (state == contractState.ItemOnTheWay || state == contractState.PackageKeyGivenToBuyer));\n        emit DeliveryTimeExceeded(\"Item not delivered on time, Refund Request\");\n        state = contractState.Refund;\n        buyer.transfer(2*itemPrice);\n        seller.transfer(2*itemPrice);\n        arbitrator.transfer(address(this).balance); //rest of ether with the arbitrator\n        state = contractState.EtherWithArbitrator;\n        emit EtherTransferredToArbitrator(\"Due to exceeding delivery time and refund request by receiver , all Ether deposits have been transferred to arbitrator \", arbitrator);\n        state = contractState.Aborted;\n    }\n\n    function verification() internal {\n        require(state == contractState.buyerKeysEntered);\n        if(verificationHash[transporter] == verificationHash[buyer]){\n            emit SuccessfulVerification(\"Payment will shortly be settled , successful verification!\");\n            buyer.transfer(itemPrice);\n            transporter.transfer((2*itemPrice) + ((10*itemPrice)/100));//receiver gets 10% of item price delivered\n            seller.transfer((2*itemPrice)+((90*itemPrice)/100));\n            state = contractState.PaymentSettledSuccess;\n        }\n        else {\n            //trusted entity the Arbitrator resolves the issue\n            emit VerificationFailure(\"Verification failed , keys do not match. Please solve the dispute off chain. No refunds.\");\n            state = contractState.DisputeVerificationFailure;\n            arbitrator.transfer(address(this).balance);//all ether with the contract\n            state = contractState.EtherWithArbitrator;\n            emit EtherTransferredToArbitrator(\"Due to dispute all Ether deposits have been transferred to arbitrator \", arbitrator);\n            state = contractState.Aborted;\n        }\n    }\n\n    function cancelTransaction(string memory reason)public OnlySeller_Buyer_Transporter{\n     require(cancellable[msg.sender] == true);\n     state = contractState.CancellationRefund;\n     //everyone gets a refund\n     seller.transfer(2*itemPrice);\n     buyer.transfer(2*itemPrice);\n     transporter.transfer(2*itemPrice);\n     emit CancellationRequest(msg.sender, \" has requested a cancellation due to: \", reason );\n     state = contractState.Aborted;\n }\n\n    function returnKey() public view returns(uint){\n        if(msg.sender == transporter || msg.sender == seller){\n            return keyTr;\n        }\n        else if(msg.sender == buyer){\n            return keyBr;\n        }\n    }\n    function isRefundable() public view OnlyBuyer returns(bool){\n      return (block.timestamp > startdeliveryBlocktime+deliveryDuration &&\n      (state == contractState.ItemOnTheWay || state == contractState.PackageKeyGivenToBuyer));\n    }\n    function isBuyerExceededTime() public view OnlyTransporter returns(bool){\n      return (block.timestamp > startEntryTransporterKeysBlocktime + buyerVerificationTimeWindow &&\n      state == contractState.ArrivedToDestination);\n    }\n\n}",
  "sourcePath": "/Users/vipulmalhotra/Desktop/Test_Research_paper/contracts/POD.sol",
  "compiler": {
    "name": "solc",
    "version": "0.5.16+commit.9c3226ce.Emscripten.clang"
  },
  "schemaVersion": "3.2.3",
  "updatedAt": "2020-08-02T21:38:09.372Z",
  "networkType": "ethereum",
  "devdoc": {
    "methods": {}
  },
  "userdoc": {
    "methods": {}
  }
}